:020000040000FA
:0400000021EF00F0FC
:1000080002820E01C5AB0BEF00F00DEF00F01DEF03
:1000180000F0C59B82A013EF00F017EF00F0016A13
:10002800012A18EF00F0016A82500118FE0B01182E
:10003800826E3D0ED26E0292110047EF00F087905B
:100048000F010C918C90F28E0E01C59BBD8BD4983C
:10005800D5501F0B4009D56ED588D550F00B09092E
:10006800D56ED48E3D0ED26E120041EC00F023EC1A
:1000780000F03DEF00F021EF00F0700E0E01D313F9
:10008800F00ED317120002900292000139EF00F02F
:020000040020DA
:10000000FFFFFFFFFFFFFFFFFFFFFFFFFFFFFFFF00
:10001000FFFFFFFFFFFFFFFFFFFFFFFFFFFFFFFFF0
:10002000FFFFFFFFFFFFFFFFFFFFFFFFFFFFFFFFE0
:10003000FFFFFFFFFFFFFFFFFFFFFFFFFFFFFFFFD0
:10004000FFFFFFFFFFFFFFFFFFFFFFFFFFFFFFFFC0
:10005000FFFFFFFFFFFFFFFFFFFFFFFFFFFFFFFFB0
:10006000FFFFFFFFFFFFFFFFFFFFFFFFFFFFFFFFA0
:10007000FFFFFFFFFFFFFFFFFFFFFFFFFFFFFFFF90
:10008000FFFFFFFFFFFFFFFFFFFFFFFFFFFFFFFF80
:10009000FFFFFFFFFFFFFFFFFFFFFFFFFFFFFFFF70
:1000A000FFFFFFFFFFFFFFFFFFFFFFFFFFFFFFFF60
:1000B000FFFFFFFFFFFFFFFFFFFFFFFFFFFFFFFF50
:1000C000FFFFFFFFFFFFFFFFFFFFFFFFFFFFFFFF40
:1000D000FFFFFFFFFFFFFFFFFFFFFFFFFFFFFFFF30
:1000E000FFFFFFFFFFFFFFFFFFFFFFFFFFFFFFFF20
:1000F000FFFFFFFFFFFFFFFFFFFFFFFFFFFFFFFF10
:020000040030CA
:0C000000F9FFFDFF9FFFFFFFFFFFFFFF68
:00000001FF
